:020000040800F2
:105000001004002001510008355300082D530008FA
:1050100031530008495100086155000800000000A4
:1050200000000000000000000000000059530008CC
:105030004D51000800000000375300084554000897
:105040001B5100081B5100081B5100081B51000890
:105050001B5100081B51000851510008A1510008C4
:105060001B5100081B5100081B5100081B51000870
:105070001B5100081B5100081B5100081B51000860
:105080001B5100081B5100081B5100081B51000850
:105090001B5100081B5100081B5100081B51000840
:1050A0001B5100081B5100081B5100081B51000830
:1050B0001B5100081B5100081B5100081B51000820
:1050C0001B5100081B5100081B5100081B51000810
:1050D0001B510008A95400081B5100081B5100086F
:1050E000795100081B5100081B510008DFF80CD053
:1050F00000F018F80048004785550008100400200B
:105100000648804706480047FEE7FEE7FEE7FEE761
:10511000FEE7FEE7FEE7FEE7FEE7FEE7495400088C
:10512000ED500008064C074D06E0E06840F0010332
:1051300094E8070098471034AC42F6D3FFF7DAFF43
:10514000C8550008E855000800BFFEE7704700009A
:1051500010B50221064800F0DCF820B905480068C7
:10516000401E04490860012000F02EF810BD000028
:10517000000C01400400002010B54FF4806000F0E6
:1051800029F8012808D105480068401C0349086037
:105190004FF4806000F018F810BD000000000020FF
:1051A00010B50121064800F0B4F820B905480068A0
:1051B000401C04490860022000F006F810BD000001
:1051C000000C014004000020014908607047000005
:1051D00014040140014600200022074B1B6803EA2B
:1051E0000102054B14331B680B4013B10AB10120B7
:1051F00000E0002070470000000401402DE9F0416C
:10520000024600250026002000230024002791F8F4
:1052100003C00CF00F0591F803C00CF0100CBCF1AA
:10522000000F03D091F802C04CEA050591F800C0C8
:10523000BCF1000F31D0146800202BE04FF0010CBE
:105240000CFA00F3B1F800C00CEA03069E4220D12C
:1052500083004FF00F0C0CFA03F7BC4305FA03FC74
:105260004CEA040491F803C0BCF1280F06D14FF0BA
:10527000010C0CFA00FCC2F814C00AE091F803C05B
:10528000BCF1480F05D14FF0010C0CFA00FCC2F83C
:1052900010C0401C0828D1D31460B1F800C0BCF184
:1052A000FF0F34DD546800202EE000F1080C4FF0B1
:1052B000010808FA0CF3B1F800C00CEA03069E429C
:1052C00021D183004FF00F0C0CFA03F7BC4305FA11
:1052D00003FC4CEA040491F803C0BCF1280F05D18B
:1052E00000F1080C08FA0CF8C2F8148091F803C019
:1052F000BCF1480F07D100F1080C4FF0010808FA83
:105300000CF8C2F81080401C0828CED35460BDE8C9
:10531000F0810246002093680B400BB1012000E0B1
:1053200000207047416170470161704700BFFEE790
:1053300000BFFEE77047704729B1064A92690243F1
:10534000044B9A6104E0034A92698243014B9A61DB
:105350007047000000100240704710B500F002F8DE
:1053600010BD00000CB5002001900090334800688B
:1053700040F480303149086000BF3048006800F4D4
:10538000003000900198401C0190009818B90198D5
:10539000B0F5A06FF1D12948006800F4003010B1D9
:1053A0000120009001E0002000900098012843D1E6
:1053B0002348006840F01000214908600846006852
:1053C00020F0030008600846006840F00200086012
:1053D0001A484068194948600846406848600846CD
:1053E000406840F4806048600846406820F47C10C3
:1053F00048600846406840F4E81048600846006885
:1054000040F08070086000BF0C48006800F0007039
:105410000028F9D00948406820F003000749486097
:105420000846406840F00200486000BF03484068FA
:1054300000F00C000828F9D10CBD0000001002405B
:10544000002002407047000010B51348006840F08B
:1054500001001149086008464068104908400E499B
:105460004860084600680E4908400B490860084635
:10547000006820F4802008600846406820F4FE00A0
:1054800048604FF41F008860FFF767FF4FF000602F
:105490000449086010BD0000001002400000FFF841
:1054A000FFFFF6FE08ED00E010B540F22551094877
:1054B00000F023F801280CD1064800F048F8044613
:1054C0002146054800F048F840F22551014800F017
:1054D00005F810BD003801400048004010B500221A
:1054E000002340F66A14A14200D100BF0A12012431
:1054F0009440A3B2DC43048010BD70B50246002482
:1055000000230025002040F66A16B14200D100BFFA
:10551000C1F3421501F01F03012606FA03F3012D22
:1055200002D19689334006E0022D02D1168A33401B
:1055300001E0968A33400C12012606FA04F416881C
:10554000344013B10CB1012000E0002070BD0146D1
:105550008888C0F308007047C1F308028280704752
:1055600000BFFEE702E008C8121F08C1002AFAD1F6
:1055700070477047002001E001C1121F002AFBD1D3
:105580007047000008B501211020FFF7D5FE4FF449
:105590000050ADF8000010208DF8030003208DF8B6
:1055A000020069460748FFF729FE4FF400510548FD
:1055B000FFF7BAFE4FF400510248FFF7B3FE00BFF9
:1055C000FEE7000000100140E85500080000002040
:1055D0000C00000064550008F45500080C00002081
:1055E00004040000745500080000000000000000E2
:0455F00000000000B7
:04000005080050EDB2
:00000001FF
